:020000040000FA
:060000000000552B003446
:08000800F200030E8301F10078
:100010000A088A01F000040883120313C400831243
:1000200003138B1C87280B3083120313430203181E
:10003000282803304302031C2828031083120313CB
:10004000C20C83120313861D282883120313C217C0
:1000500083120313C30300304304031D8228831259
:100060000317480883120313A200831203174908D9
:1000700083120313A300831203174A088312031386
:10008000A400831203134208FD0083120313220805
:10009000FE002308FF002408042483120317C80A63
:1000A0000319C90A0319CA0A83120317CE0A0130B9
:1000B00083120313A3004830A200A401003083126E
:1000C00003174A02031D72288312031323088312A5
:1000D00003174902031D7228831203132208831297
:1000E00003174802031C7B28013083120317C90041
:1000F0003430C800CA0183120313C2010B308312CB
:100100000313C3008312031381018B1095288312FC
:1001100003130B1D952800308312031342040319A7
:1001200092282E23831203130B1183120313440806
:1001300083120313840070088A008301710E830008
:10014000F20E720E09008316031381130B30860022
:100150008312031386010C308316031399001815BC
:100160001812831203139817831603139816831219
:1001700003131816831603138112811583120313B8
:10018000810190101010101290128B018B160B161B
:10019000831603138C01831203138C01831603133C
:1001A0000113013083120313AC00203083120313B8
:1001B000BE0083120313BB0083120313AB00AD0117
:1001C0002C0883120313BF000030C00083120313F6
:1001D0002C0883120313BC000030BD0083120313EC
:1001E000C1012E23831203138B17831203138C1E5A
:1001F0004529831203133B0883120313AB008312B8
:1002000003133C0883120313AC00831203133D084D
:1002100083120313AD00831203131A08FD00831227
:1002200003132B08FE002C08FF002D080424831262
:100230000313BB0A0319BC0A0319BD0A8312031373
:10024000C10A013083120313AC003430AB00AD019E
:100250000030831203133D02031D3C298312031354
:100260002C08831203133C02031D3C298312031341
:100270002B08831203133B02031C45290130831210
:100280000313BC002030BB00BD01003083120313F8
:100290004104031D51290030831203174E04031932
:1002A0005629203083120313860061298312031319
:1002B000060883120313AB00DF302B0583120313F0
:1002C0008600831203130C1EB42900308312031717
:1002D0004E040319B429831203174B088312031326
:1002E000AB00831203174C0883120313AC00831274
:1002F00003174D0883120313AD002B08FE002C08D2
:10030000FF002D08F12383120313990083120317B2
:10031000CB0A0319CC0A0319CD0A01308312031347
:10032000AC004830AB00AD010030831203174D0222
:10033000031DA829831203132C08831203174C02F0
:10034000031DA829831203132B08831203174B02E2
:10035000031CB129013083120317CC003430CB00C9
:10036000CD0183120317CE0300308312031341041F
:100370000319F528831203133E0883120313AB00FD
:10038000831203133F0883120313AC008312031379
:10039000400883120313AD002B08FE002C08FF0059
:1003A0002D08F12383120313AE0083120313BE0A38
:1003B0000319BF0A0319C00A831203132E08092266
:1003C000013083120313AC003430AB00AD010030B8
:1003D000831203134002031DFB29831203132C080D
:1003E000831203133F02031DFB29831203132B08FF
:1003F000831203133E02031C042A013083120313E9
:10040000BF002030BE00C00183120313C103F528D2
:10041000080083120313A500A601A701831203138A
:100420008B1783160313060883120313A8000130E9
:100430002804831603138600861506088312031307
:10044000A800FE30280583160313860083120313C9
:10045000A80183120313A80A0C302802031C292ABE
:1004600083160313060883120313A800F730280528
:1004700083160313860083120313A8018312031348
:10048000A80A02302802031C3E2A8316031306081A
:1004900083120313A8000130280483160313860077
:1004A00083120313A80183120313A80A053028023C
:1004B000031C532A831203138F018E010C10101496
:1004C00083120313A8018312031306088312031374
:1004D000A900291C6F2A831203130C1C632A8312A0
:1004E00003130C18152B083083120313280203186A
:1004F0009D2A251C832A08308316031306048312C1
:100500000313A9008C2A831603130608831203130E
:10051000AA00F7302A05A9008312031329088316BD
:100520000313860083120313251C982A0130A706A3
:10053000031083120313A50CFE2A83120313280849
:10054000083A031DC22A2708A900AA01A909AA0975
:10055000291CB22A083083160313060483120313DE
:10056000A900BB2A83160313060883120313AA00EB
:10057000F7302A05A90083120313290883160313F1
:100580008600FE2A0930831203132802031CFE2A68
:10059000831603138615060883120313A90001307E
:1005A00029048316031386008312031328080A3ACA
:1005B000031DFE2A83120313861DE02A0C1CDA2A6F
:1005C000831203130C18E82A013083120313A600C8
:1005D00083120313861DF62A060883120313A9004B
:1005E000291CF62A831203130C1CE82A8312031316
:1005F0000C1C152B83120313A601152B8312031356
:10060000060883120313A90029180A2B8312031367
:100610000C1CFE2A831203130C18152B83120313D0
:10062000A80A0B302802031C632A831603138615BD
:10063000060883120313A500013025048316031353
:1006400086008312031310100C102E238312031341
:100650008B108B17831203132608080001308312B6
:100660000313A100343083120317CB008312031746
:10067000C80083120313A000210883120317CC00C3
:100680000030CD0083120313210883120317C90021
:100690000030CA0083120317CE010B3083120313FC
:1006A000C30083120313C20108003130FE0004307E
:1006B000FF008030000000001024000000008312C2
:1006C0000313B0007F08AF003330B1000430B20034
:1006D000831203132F08B3003008B400FF30AF07B4
:1006E000031CB003330834040319ED2B0430310725
:1006F000B300B401B40D3208B4073308FE00340867
:10070000FF00803000000000102400000000831271
:100710000313B6007F08B5003108FE003208FF0061
:10072000803000000000102400000000831203133A
:10073000B800B4007F08B700B30002303107B3003F
:10074000B401B40D3208B4073308FE003408FF00CA
:10075000803000000000102400000000831203130A
:10076000B400BA007F08B300B90083120313350840
:10077000B9003608BA00FF30B507031CB6033908C4
:100780003A040319E62B3708FE003808FF008030D2
:1007900000000000F1230000000083120313B900E1
:1007A0003308831203138400831383120313341852
:1007B0008317390883120313800083120313B70AC7
:1007C0000319B80AB30A0319B40AB52B0630831209
:1007D0000313B1070318B20A682B00000000A32816
:1007E0000800003A0319F82B803A0319FF2B003454
:1007F0007E08840083137F188317000808007F0891
:100800008A007E0882000800003A0319082C0800BC
:100810007E08840083137F1883177D0880000800FA
:10082000003A0319182C803A0319222CFF010034D6
:100830007E08840083137F1883170008FF00840A52
:100840000008080000000000FF23FD00FE0FFF036A
:10085000FF0A00000000FF23FC007D08FF007C0869
:1008600008000134003402340034453400340134CB
:02087000003452
:02400E00383F39
:00000001FF
